{
  "_format": "hh-sol-artifact-1",
  "contractName": "Staking",
  "sourceName": "contracts/Staking.sol",
  "abi": [
    {
      "inputs": [],
      "stateMutability": "payable",
      "type": "constructor"
    },
    {
      "inputs": [
        {
          "internalType": "uint256",
          "name": "positionId",
          "type": "uint256"
        },
        {
          "internalType": "uint256",
          "name": "newUnlockDate",
          "type": "uint256"
        }
      ],
      "name": "changeUnlockDate",
      "outputs": [],
      "stateMutability": "nonpayable",
      "type": "function"
    },
    {
      "inputs": [
        {
          "internalType": "uint256",
          "name": "positionId",
          "type": "uint256"
        }
      ],
      "name": "closePosition",
      "outputs": [],
      "stateMutability": "nonpayable",
      "type": "function"
    },
    {
      "inputs": [],
      "name": "currentPositionId",
      "outputs": [
        {
          "internalType": "uint256",
          "name": "",
          "type": "uint256"
        }
      ],
      "stateMutability": "view",
      "type": "function"
    },
    {
      "inputs": [
        {
          "internalType": "uint256",
          "name": "numDays",
          "type": "uint256"
        }
      ],
      "name": "getInterestRate",
      "outputs": [
        {
          "internalType": "uint256",
          "name": "",
          "type": "uint256"
        }
      ],
      "stateMutability": "view",
      "type": "function"
    },
    {
      "inputs": [],
      "name": "getLockPeriods",
      "outputs": [
        {
          "internalType": "uint256[]",
          "name": "",
          "type": "uint256[]"
        }
      ],
      "stateMutability": "view",
      "type": "function"
    },
    {
      "inputs": [
        {
          "internalType": "uint256",
          "name": "positionId",
          "type": "uint256"
        }
      ],
      "name": "getPositionId",
      "outputs": [
        {
          "components": [
            {
              "internalType": "uint256",
              "name": "positionId",
              "type": "uint256"
            },
            {
              "internalType": "address",
              "name": "walletAddress",
              "type": "address"
            },
            {
              "internalType": "uint256",
              "name": "createdDate",
              "type": "uint256"
            },
            {
              "internalType": "uint256",
              "name": "unlockedDate",
              "type": "uint256"
            },
            {
              "internalType": "uint256",
              "name": "percentInterest",
              "type": "uint256"
            },
            {
              "internalType": "uint256",
              "name": "weiStaked",
              "type": "uint256"
            },
            {
              "internalType": "uint256",
              "name": "weiInterest",
              "type": "uint256"
            },
            {
              "internalType": "bool",
              "name": "open",
              "type": "bool"
            }
          ],
          "internalType": "struct Staking.Position",
          "name": "",
          "type": "tuple"
        }
      ],
      "stateMutability": "view",
      "type": "function"
    },
    {
      "inputs": [
        {
          "internalType": "address",
          "name": "walletAddress",
          "type": "address"
        }
      ],
      "name": "getPositionIdForAddress",
      "outputs": [
        {
          "internalType": "uint256[]",
          "name": "",
          "type": "uint256[]"
        }
      ],
      "stateMutability": "view",
      "type": "function"
    },
    {
      "inputs": [
        {
          "internalType": "uint256",
          "name": "",
          "type": "uint256"
        }
      ],
      "name": "lockPeriods",
      "outputs": [
        {
          "internalType": "uint256",
          "name": "",
          "type": "uint256"
        }
      ],
      "stateMutability": "view",
      "type": "function"
    },
    {
      "inputs": [
        {
          "internalType": "uint256",
          "name": "numDays",
          "type": "uint256"
        },
        {
          "internalType": "uint256",
          "name": "basisPoints",
          "type": "uint256"
        }
      ],
      "name": "modifyLockPeriod",
      "outputs": [],
      "stateMutability": "nonpayable",
      "type": "function"
    },
    {
      "inputs": [],
      "name": "owner",
      "outputs": [
        {
          "internalType": "address",
          "name": "",
          "type": "address"
        }
      ],
      "stateMutability": "view",
      "type": "function"
    },
    {
      "inputs": [
        {
          "internalType": "address",
          "name": "",
          "type": "address"
        },
        {
          "internalType": "uint256",
          "name": "",
          "type": "uint256"
        }
      ],
      "name": "positionIdsByAddress",
      "outputs": [
        {
          "internalType": "uint256",
          "name": "",
          "type": "uint256"
        }
      ],
      "stateMutability": "view",
      "type": "function"
    },
    {
      "inputs": [
        {
          "internalType": "uint256",
          "name": "",
          "type": "uint256"
        }
      ],
      "name": "positions",
      "outputs": [
        {
          "internalType": "uint256",
          "name": "positionId",
          "type": "uint256"
        },
        {
          "internalType": "address",
          "name": "walletAddress",
          "type": "address"
        },
        {
          "internalType": "uint256",
          "name": "createdDate",
          "type": "uint256"
        },
        {
          "internalType": "uint256",
          "name": "unlockedDate",
          "type": "uint256"
        },
        {
          "internalType": "uint256",
          "name": "percentInterest",
          "type": "uint256"
        },
        {
          "internalType": "uint256",
          "name": "weiStaked",
          "type": "uint256"
        },
        {
          "internalType": "uint256",
          "name": "weiInterest",
          "type": "uint256"
        },
        {
          "internalType": "bool",
          "name": "open",
          "type": "bool"
        }
      ],
      "stateMutability": "view",
      "type": "function"
    },
    {
      "inputs": [
        {
          "internalType": "uint256",
          "name": "numDays",
          "type": "uint256"
        }
      ],
      "name": "stakeEther",
      "outputs": [],
      "stateMutability": "payable",
      "type": "function"
    },
    {
      "inputs": [
        {
          "internalType": "uint256",
          "name": "",
          "type": "uint256"
        }
      ],
      "name": "tiers",
      "outputs": [
        {
          "internalType": "uint256",
          "name": "",
          "type": "uint256"
        }
      ],
      "stateMutability": "view",
      "type": "function"
    }
  ],
  "bytecode": "0x6080604052336000806101000a81548173ffffffffffffffffffffffffffffffffffffffff021916908373ffffffffffffffffffffffffffffffffffffffff16021790555060006009819055506102bc600c6000601e8152602001908152602001600020819055506103e8600c6000605a8152602001908152602001600020819055506104b0600c600060b4815260200190815260200160002081905550600d601e9080600181540180825580915050600190039060005260206000200160009091909190915055600d605a9080600181540180825580915050600190039060005260206000200160009091909190915055600d60b490806001815401808255809150506001900390600052602060002001600090919091909150556114ce8061012a6000396000f3fe6080604052600436106100dd5760003560e01c806385d19a251161007f578063a126d60111610059578063a126d60114610315578063c7c9d0551461033e578063cc7d7b7614610367578063e4f9084114610390576100dd565b806385d19a25146102695780638da5cb5b146102a657806399fbab88146102d1576100dd565b80631131c8cd116100bb5780631131c8cd1461019957806341ee13be146101c457806345eae373146101ef5780634c8f2a781461022c576100dd565b8063039af9eb146100e25780630c196a741461011f5780630cedf4471461015c575b600080fd5b3480156100ee57600080fd5b5061010960048036038101906101049190610da7565b6103ac565b60405161011691906111ac565b60405180910390f35b34801561012b57600080fd5b5061014660048036038101906101419190610da7565b6103c4565b60405161015391906111ac565b60405180910390f35b34801561016857600080fd5b50610183600480360381019061017e9190610d42565b6103e1565b60405161019091906110ee565b60405180910390f35b3480156101a557600080fd5b506101ae610478565b6040516101bb91906111ac565b60405180910390f35b3480156101d057600080fd5b506101d961047e565b6040516101e691906110ee565b60405180910390f35b3480156101fb57600080fd5b5061021660048036038101906102119190610d6b565b6104d6565b60405161022391906111ac565b60405180910390f35b34801561023857600080fd5b50610253600480360381019061024e9190610da7565b610507565b60405161026091906111ac565b60405180910390f35b34801561027557600080fd5b50610290600480360381019061028b9190610da7565b61052b565b60405161029d9190611190565b60405180910390f35b3480156102b257600080fd5b506102bb610606565b6040516102c891906110d3565b60405180910390f35b3480156102dd57600080fd5b506102f860048036038101906102f39190610da7565b61062a565b60405161030c9897969594939291906111c7565b60405180910390f35b34801561032157600080fd5b5061033c60048036038101906103379190610da7565b61069f565b005b34801561034a57600080fd5b5061036560048036038101906103609190610dd0565b6108c2565b005b34801561037357600080fd5b5061038e60048036038101906103899190610dd0565b61096f565b005b6103aa60048036038101906103a59190610da7565b610a65565b005b600c6020528060005260406000206000915090505481565b6000600c6000838152602001908152602001600020549050919050565b6060600b60008373ffffffffffffffffffffffffffffffffffffffff1673ffffffffffffffffffffffffffffffffffffffff16815260200190815260200160002080548060200260200160405190810160405280929190818152602001828054801561046c57602002820191906000526020600020905b815481526020019060010190808311610458575b50505050509050919050565b60095481565b6060600d8054806020026020016040519081016040528092919081815260200182805480156104cc57602002820191906000526020600020905b8154815260200190600101908083116104b8575b5050505050905090565b600b60205281600052604060002081815481106104f257600080fd5b90600052602060002001600091509150505481565b600d818154811061051757600080fd5b906000526020600020016000915090505481565b610533610cbb565b600a600083815260200190815260200160002060405180610100016040529081600082015481526020016001820160009054906101000a900473ffffffffffffffffffffffffffffffffffffffff1673ffffffffffffffffffffffffffffffffffffffff1673ffffffffffffffffffffffffffffffffffffffff16815260200160028201548152602001600382015481526020016004820154815260200160058201548152602001600682015481526020016007820160009054906101000a900460ff1615151515815250509050919050565b60008054906101000a900473ffffffffffffffffffffffffffffffffffffffff1681565b600a6020528060005260406000206000915090508060000154908060010160009054906101000a900473ffffffffffffffffffffffffffffffffffffffff16908060020154908060030154908060040154908060050154908060060154908060070160009054906101000a900460ff16905088565b3373ffffffffffffffffffffffffffffffffffffffff16600a600083815260200190815260200160002060010160009054906101000a900473ffffffffffffffffffffffffffffffffffffffff1673ffffffffffffffffffffffffffffffffffffffff1614610743576040517f08c379a000000000000000000000000000000000000000000000000000000000815260040161073a90611130565b60405180910390fd5b60011515600a600083815260200190815260200160002060070160009054906101000a900460ff161515146107ad576040517f08c379a00000000000000000000000000000000000000000000000000000000081526004016107a490611170565b60405180910390fd5b6000600a600083815260200190815260200160002060070160006101000a81548160ff0219169083151502179055506000600a60008381526020019081526020016000206003015442111561083b57600a600083815260200190815260200160002060060154600a600084815260200190815260200160002060050154610834919061129a565b9050610855565b600a60008381526020019081526020016000206005015490505b3373ffffffffffffffffffffffffffffffffffffffff1681604051610879906110be565b60006040518083038185875af1925050503d80600081146108b6576040519150601f19603f3d011682016040523d82523d6000602084013e6108bb565b606091505b5050505050565b3373ffffffffffffffffffffffffffffffffffffffff1660008054906101000a900473ffffffffffffffffffffffffffffffffffffffff1673ffffffffffffffffffffffffffffffffffffffff1614610950576040517f08c379a000000000000000000000000000000000000000000000000000000000815260040161094790611150565b60405180910390fd5b80600a6000848152602001908152602001600020600301819055505050565b3373ffffffffffffffffffffffffffffffffffffffff1660008054906101000a900473ffffffffffffffffffffffffffffffffffffffff1673ffffffffffffffffffffffffffffffffffffffff16146109fd576040517f08c379a00000000000000000000000000000000000000000000000000000000081526004016109f490611150565b60405180910390fd5b601e82141580610a0e5750605a8214155b80610a1a575060b48214155b15610a385780600c6000848152602001908152602001600020819055505b600d8290806001815401808255809150506001900390600052602060002001600090919091909150555050565b6000600c60008381526020019081526020016000205411610abb576040517f08c379a0000000000000000000000000000000000000000000000000000000008152600401610ab290611110565b60405180910390fd5b60405180610100016040528060095481526020013373ffffffffffffffffffffffffffffffffffffffff1681526020014281526020016201518083610b009190611321565b42610b0b919061129a565b8152602001600c6000848152602001908152602001600020548152602001348152602001610b4d600c6000858152602001908152602001600020548434610c97565b815260200160011515815250600a600060095481526020019081526020016000206000820151816000015560208201518160010160006101000a81548173ffffffffffffffffffffffffffffffffffffffff021916908373ffffffffffffffffffffffffffffffffffffffff16021790555060408201518160020155606082015181600301556080820151816004015560a0820151816005015560c0820151816006015560e08201518160070160006101000a81548160ff021916908315150217905550905050600b60003373ffffffffffffffffffffffffffffffffffffffff1673ffffffffffffffffffffffffffffffffffffffff168152602001908152602001600020600954908060018154018082558091505060019003906000526020600020016000909190919091505560096000815480929190610c8f906113c3565b919050555050565b60006127108285610ca89190611321565b610cb291906112f0565b90509392505050565b60405180610100016040528060008152602001600073ffffffffffffffffffffffffffffffffffffffff16815260200160008152602001600081526020016000815260200160008152602001600081526020016000151581525090565b600081359050610d278161146a565b92915050565b600081359050610d3c81611481565b92915050565b600060208284031215610d5457600080fd5b6000610d6284828501610d18565b91505092915050565b60008060408385031215610d7e57600080fd5b6000610d8c85828601610d18565b9250506020610d9d85828601610d2d565b9150509250929050565b600060208284031215610db957600080fd5b6000610dc784828501610d2d565b91505092915050565b60008060408385031215610de357600080fd5b6000610df185828601610d2d565b9250506020610e0285828601610d2d565b9150509250929050565b6000610e1883836110a0565b60208301905092915050565b610e2d8161137b565b82525050565b610e3c8161137b565b82525050565b6000610e4d82611255565b610e57818561126d565b9350610e6283611245565b8060005b83811015610e93578151610e7a8882610e0c565b9750610e8583611260565b925050600181019050610e66565b5085935050505092915050565b610ea98161138d565b82525050565b610eb88161138d565b82525050565b6000610ecb601283611289565b91507f4d617070696e67206e6f7420666f756e642e00000000000000000000000000006000830152602082019050919050565b6000610f0b601f83611289565b91507f4f6e6c79205374616b65722063616e206d6f6469667920706f736974696f6e006000830152602082019050919050565b6000610f4b602583611289565b91507f6f6e6c79206f776e65722063616e206d6f66696479207374616b696e6720706560008301527f72696f642e0000000000000000000000000000000000000000000000000000006020830152604082019050919050565b6000610fb160008361127e565b9150600082019050919050565b6000610fcb601283611289565b91507f506f73696f6e7420697320636c6f7365642e00000000000000000000000000006000830152602082019050919050565b6101008201600082015161101560008501826110a0565b5060208201516110286020850182610e24565b50604082015161103b60408501826110a0565b50606082015161104e60608501826110a0565b50608082015161106160808501826110a0565b5060a082015161107460a08501826110a0565b5060c082015161108760c08501826110a0565b5060e082015161109a60e0850182610ea0565b50505050565b6110a9816113b9565b82525050565b6110b8816113b9565b82525050565b60006110c982610fa4565b9150819050919050565b60006020820190506110e86000830184610e33565b92915050565b600060208201905081810360008301526111088184610e42565b905092915050565b6000602082019050818103600083015261112981610ebe565b9050919050565b6000602082019050818103600083015261114981610efe565b9050919050565b6000602082019050818103600083015261116981610f3e565b9050919050565b6000602082019050818103600083015261118981610fbe565b9050919050565b6000610100820190506111a66000830184610ffe565b92915050565b60006020820190506111c160008301846110af565b92915050565b6000610100820190506111dd600083018b6110af565b6111ea602083018a610e33565b6111f760408301896110af565b61120460608301886110af565b61121160808301876110af565b61121e60a08301866110af565b61122b60c08301856110af565b61123860e0830184610eaf565b9998505050505050505050565b6000819050602082019050919050565b600081519050919050565b6000602082019050919050565b600082825260208201905092915050565b600081905092915050565b600082825260208201905092915050565b60006112a5826113b9565b91506112b0836113b9565b9250827fffffffffffffffffffffffffffffffffffffffffffffffffffffffffffffffff038211156112e5576112e461140c565b5b828201905092915050565b60006112fb826113b9565b9150611306836113b9565b9250826113165761131561143b565b5b828204905092915050565b600061132c826113b9565b9150611337836113b9565b9250817fffffffffffffffffffffffffffffffffffffffffffffffffffffffffffffffff04831182151516156113705761136f61140c565b5b828202905092915050565b600061138682611399565b9050919050565b60008115159050919050565b600073ffffffffffffffffffffffffffffffffffffffff82169050919050565b6000819050919050565b60006113ce826113b9565b91507fffffffffffffffffffffffffffffffffffffffffffffffffffffffffffffffff8214156114015761140061140c565b5b600182019050919050565b7f4e487b7100000000000000000000000000000000000000000000000000000000600052601160045260246000fd5b7f4e487b7100000000000000000000000000000000000000000000000000000000600052601260045260246000fd5b6114738161137b565b811461147e57600080fd5b50565b61148a816113b9565b811461149557600080fd5b5056fea2646970667358221220984eae0f6a0251bdd5d0589c64133b2f66f831bc7414c2a932e10a2b3dcfd42f64736f6c63430008000033",
  "linkReferences": {},
  "deployedLinkReferences": {}
}